:020000040801F1
:10000000280A00209D0101083925010879210108ED
:10001000352501081D0501085930010800000000C0
:100020000000000000000000000000006D25010835
:10003000690501080000000069250108C9250108BB
:10004000B7010108B7010108B7010108B7010108AC
:10005000B7010108B7010108B7010108B70101089C
:10006000B7010108B7010108B7010108B70101088C
:10007000B7010108B7010108B7010108B70101087C
:10008000B7010108B7010108B70101084D050108D2
:100090002105010831050108B7010108B701010870
:1000A00099260108C9260108B9260108A9260108D0
:1000B000D9260108E9260108B7010108B70101089E
:1000C000B7010108B7010108B7010108B70101082C
:1000D000B7010108792F0108892F0108B70101082C
:1000E000B7010108B7010108B7010108B70101080C
:1000F000B7010108B7010108B7010108B7010108FC
:10010000B7010108B701010885270108B7010108F7
:10011000B7010108B701010895270108B7010108D7
:10012000B7010108B7010108B7010108B7010108CB
:10013000B7010108B7010108B7010108B7010108BB
:10014000B7010108B7010108B7010108B7010108AB
:10015000B7010108B7010108B7010108B70101089B
:10016000B7010108B7010108B7010108B70101088B
:10017000B7010108B7010108B7010108000000003C
:10018000B7010108B7010108DFF80CD000F0B4F99D
:1001900000480047E9300108280A00200648804747
:1001A00006480047FEE7FEE7FEE7FEE7FEE7FEE75C
:1001B000FEE7FEE7FEE7FEE77D260108890101086C
:1001C0002DE9F05F0546002092469B46884606468C
:1001D000814640241BE0284641464746224600F01F
:1001E0001EF953465A46C01A914110D3114618467B
:1001F000224600F005F92D1A67EB01084F4622460A
:100200000120002100F0FCF817EB00094E41201EF0
:10021000A4F10104DFDC484631462A464346BDE8E6
:10022000F09F40EA01039B0703D009E008C9121FB1
:1002300008C0042AFAD203E011F8013B00F8013BA0
:10024000521EF9D27047D2B201E000F8012B491ECC
:10025000FBD270470022F6E710B513460A46044663
:100260001946FFF7F0FF204610BD2DE9F04D81EA59
:10027000030404F0004B21F0004514464FF0000A3F
:1002800023F0004150EA050220D054EA01021DD0BB
:10029000C5F30A570246C5F31303C1F31300C1F3B4
:1002A0000A5640F4801543F48013A7EB0608101B90
:1002B000D64608F2FD3873EB050002D308F10108B9
:1002C00001E092185B41B8F1000F03DA002001460B
:1002D000BDE8F08D00204FF48011064684460EE004
:1002E000171B73EB050705D3121B63EB05030643CE
:1002F0004CEA010C49084FEA300092185B4150EA81
:100300000107EDD152EA030012D082EA040083EA29
:100310000501084305D0101BAB4106D20122002382
:1003200006E000224FF0004302E06FF0010253109C
:100330001AEB06004CEB085110EB0A0041EB0B01E5
:10034000BDE8F04D00F07BB830B5041E71F100043B
:1003500004DB4FF00044404264EB0101141E73F1D2
:10036000000405DB1C464FF00043524263EB0403DC
:10037000101A8B4101D2012030BD002030BD30B5B4
:10038000041E71F1000404DB4FF00044404264EBB2
:100390000101141E73F1000405DB1C464FF00043FD
:1003A000524263EB0403801A994101D2012030BD0F
:1003B000002030BD0EB540F2334102910021CDE95D
:1003C00000110A460B4600F049F803B000BDC1F326
:1003D0000A5210B5C1F3130140F2FF3341F480110A
:1003E0009A4201DA002010BD40F233439A42A2F251
:1003F000334203DC524200F012F810BD904010BDB1
:10040000202A04DB203A00FA02F1002070479140D4
:10041000C2F1200320FA03F3194390407047202AC9
:1004200004DB203A21FA02F00021704721FA02F39E
:10043000D040C2F12002914008431946704710B5E0
:10044000141E73F1000408DA401C41F100019218F7
:100450005B411A4301D120F0010010BD2DE9F04DA0
:1004600092469B4611B1B1FA81F202E0B0FA80F2F5
:1004700020329046FFF7C4FF04460F4640EA0A00C8
:1004800041EA0B0153465A46084313D0114653EA3A
:10049000010019D0C8F140025046FFF7C0FF0546E1
:1004A0000E46504659464246FFF7AAFF084305D07C
:1004B000012004E020463946BDE8F08D00200543C8
:1004C00046EAE0762C4337430A986305E40AA0EB3A
:1004D00008000022FD0A44EA47540A3002D50020F1
:1004E0000146E9E7010510196941DDE908450019F0
:1004F0006941BDE8F04DA2E7064C074D06E0E06813
:1005000040F0010394E8070098471034AC42F6D35A
:10051000FFF73EFE2837010848370108FEE70000D4
:1005200080B540F2DC30C2F2000000F0A1F980BDDD
:1005300080B540F2DC30C2F2000000F099F980BDD5
:1005400080B5002002F0C6FE80BD000080B540F2FC
:10055000DC30C2F2000000F08BF980BD80B50120D4
:1005600002F0B8FE80BD0000704700007047000038
:1005700090F82020013A012A04D8006800F1140202
:10058000002004E000F1240201204FF480211368D0
:10059000194311607047000010B590F820E0D0F8C2
:1005A00000C0AEF1010EBEF1010FDCF808E00DD87D
:1005B0001EF0E05F10D0CEF3016EBEF1030F11D13B
:1005C00000F1240101204FF4000233E000F1240186
:1005D00001204FF480222DE000F1240101204FF48E
:1005E000001227E0012000FA0EF01860886818B1A8
:1005F0004B6840EAC30001E008684005D1E90334D4
:1006000003430CEB0E10C0F88031C0F88441097D23
:10061000012905D100F5C2710B6843F480730B60AA
:100620005168C0F88C11126800F5C071C0F88821BB
:10063000002001220B681A430A6010BDB0B590F883
:100640002020013A012A2FD846F20060C4F20000AF
:10065000026842F001020260026822F47C520260E9
:10066000D1F814E0CC694A6A0368012C43EA0222FB
:1006700002600EF01F024FF0010303FA02F2C36999
:100680006FEA020C23EA0203C36113D02CBBC368D8
:1006900003EA0C03C360CB688C8844EA034300EB95
:1006A000CE0423640B4611E0416A41F4802141628B
:1006B0000120B0BDC3681343C3600B688C8844EA53
:1006C000034300EBCE04236401F10C038C681B8808
:1006D00043EA044300EBCE04636443688D6943EA54
:1006E0000204D1F810E0096A002D08BF03EA0C04E7
:1006F00044604369BEF1000F43EA020408BF03EA05
:100700000C040129446102D1C1691143C16101682E
:1007100021F0010101600020B0BD000080B540F271
:100720001800C2F20000006808B1804780BDFFF7E2
:100730001DFF80BD90F82020013A012A84BF0020CF
:10074000704700681022002908BF0C22805800F072
:100750000300704710B590F82040013C012C0CD8E4
:10076000D0F800C079B1DCF81040A4070FD100F137
:10077000240101204FF4001270E000F12401012057
:100780004FF480226AE0DCF80C40A4076AD00468C9
:1007900004EB011CDCF8B0410CF5D87E14F0040425
:1007A0009460DCF8B04119BFE4085460640D146033
:1007B000DEF80040002904F00204D460DCF8B44103
:1007C00004F00F041461DCF8B441C4F3072494610D
:1007D000DCF8B4414FEA14445461DCF8B8211A70D3
:1007E000026802EB0112D2F8B8214FEA12225A70C5
:1007F000026802EB0112D2F8B8214FEA12429A7055
:10080000026802EB0112D2F8B8214FEA1262DA70E4
:10081000026802EB0112D2F8BC211A71026802EBE5
:100820000112D2F8BC214FEA12225A71026802EB7F
:100830000112D2F8BC214FEA12429A71026802EB0F
:100840000112D2F8BC214FEA1262DA71006814BFBB
:1008500000F1100100F10C01002020220B681A4366
:100860000A6010BD00F1240101204FF40012F5E7E9
:100870002DE9F04F81B0044600684669D0F8049035
:100880008768D0F80CB0D0F810A0D0F81880F10725
:1008900003D1002530071CD423E0F90710D0012133
:1008A000BA07816009D4780700F1AA80380700F1FF
:1008B000B080204600F026FA02E0204600F024FA3C
:1008C0000025F80500F18480F80300F1AA803007C4
:1008D00007D51BF0100004D0206845F400751021E6
:1008E000C160700708D51BF0080005D020680821FA
:1008F000C160204600F0A6F9B00706D52068C068A0
:10090000800702D0204600F0A9F9700607D51AF03A
:10091000100004D0206845F4806510210161B00604
:1009200008D51AF0080005D020680821016120468A
:1009300000F0A0F9F00606D520680069800702D013
:10094000204600F0A3F9B00308D519F0100005D037
:10095000206810214160204600F0A4F9F00308D57A
:1009600019F0080005D0206808214160204600F0F9
:10097000F3F9300440F18F805FEA497040F18880DC
:1009800006F4807008EA102028435FEA8871014667
:1009900048BF41F00201B20558BF01465FEA487006
:1009A0000D4648BF45F00405700558BF0D4630059B
:1009B0006ED518F070006BD010380009052862D889
:1009C000DFE800F0035356595C5F45F008055AE034
:1009D00020684FF48071BA0581600AD4780512D47A
:1009E000380519D4204600F09BF9F8037FF56FAF66
:1009F00017E0204600F096F9F8037FF568AF10E0A5
:100A00004FF400655DE705F50055F8037FF55FAF2E
:100A100007E04FF4805554E705F58045F8037FF56E
:100A200056AF20684FF48031BA0381600AD478034E
:100A30000FD4380313D4204600F080F930073FF577
:100A400048AF4EE7204600F07BF930073FF541AF55
:100A500047E705F5004530073FF53BAF41E705F5B2
:100A6000803530073FF535AF3BE745F010050AE02C
:100A700045F0200507E045F0400504E045F080051D
:100A800001E045F480752068816921F07001816181
:100A90002068042141602DB1606A284360622046CD
:100AA000FFF73CFE01B0BDE8F08F0000B0B5C8B163
:100AB000044690F8200010B9204600F071F8206834
:100AC000016821F00201016000F03CFA054600BF18
:100AD00020684168890707D500F034FA401B0B28CD
:100AE000F6D312E00120B0BD016841F001010160C0
:100AF00000F028FA054600BF20684168C9070DD1FB
:100B000000F020FA401B0B28F6D3606A052140F460
:100B100000306062012084F82010B0BD217E0268A0
:100B2000012922F0800208BF80320260617E0268E3
:100B3000012922F0400208BF40320260A17E026813
:100B4000012922F0200208BF20320260E17E026803
:100B5000012922F0100218BF10320260217F0268C2
:100B6000012922F0080208BF08320260617F026892
:100B7000012922F0040208BF04320260D4E901C254
:100B8000D4E9033561691A432A431143ACF10102E8
:100B90001143C16100200121606284F82010B0BDC2
:100BA00080B586B046F200410068C4F20001002220
:100BB00088420592CDE903220292019201D006B04B
:100BC00080BD43F630000092C4F20200036943F096
:100BD00000730361036903F000730093009B0092AC
:100BE000036843F001030360006800F00100009017
:100BF00000984FF4C05001900220CDE9020203207A
:100C000004900920059001F5CE3001A900F0B8F854
:100C100013200121002200F00DFA132000F006FA43
:100C200014200021002200F005FA142000F0FEF943
:100C300015200021002200F0FDF9152000F0F6F942
:100C400006B080BD80B540F26000C2F200000068CE
:100C500008B1804780BDFFF789FC80BD80B540F2B8
:100C60006000C2F20000006808B1804780BDFFF755
:100C70007DFC80BD80B540F26000C2F200000068DB
:100C800008B1804780BDFFF771FC80BD80B540F2A0
:100C90006000C2F20000006808B1804780BDFFF725
:100CA00065FC80BD70470000B0B5044690F8200098
:100CB00001281DD1022084F820002068016821F05D
:100CC0000101016000F03EF9054600BF2068406860
:100CD000C00713D000F036F9401B0B28F6D3606A2A
:100CE00040F400306062052084F820000120B0BD8F
:100CF000606A40F4002060620120B0BD00206062A4
:100D0000B0BD00007047000080B540F2B420C2F2D0
:100D10000000006808B1804780BDFFF727FC80BD58
:100D20007047000080B540F2B420C2F200000068B5
:100D300008B1804780BDFFF719FC80BD70470000F7
:100D400080B540F2B420C2F20000006808B18047CC
:100D500080BDFFF70BFC80BD7047000090F8351098
:100D6000022909D1052180F835100068016821F0B9
:100D7000010101600020704780214165012070471A
:100D80002DE9F04F83B000F13E4202F1FF7243F6CD
:100D9000004E4FEAB22241F60047C4F2010E019222
:100DA000C4F2020708224FF0010B00254FF00008A3
:100DB0004FF00009B84208BF072200920AE000BFC6
:100DC00009F1010908F10408B9F1100F05F1020554
:100DD00000F0A0800F680BFA09F417EA040CEFD0BA
:100DE000D1F804A0BAF1120F15D80BFA0AF717F0D0
:100DF000061F10D087680322CE68AA4027EA0202A5
:100E0000AE40324382604268A243CAF3001404FA3F
:100E100009F422434260C26803238C6803FA05FB8D
:100E200022EA0B02AC4022434AF01004122CC260AA
:100E30000FD16FF0030202EA5902024408F01C06C7
:100E40000F23146A03FA06F70B69BC43B34023432C
:100E5000136203684C686FEA0B021A4004F0030344
:100E6000AB401A43E3004FF0010B0260A8D500220B
:100E700043F644030292C4F202031A684FF6084A8A
:100E800042F480421A601A68CFF6FF7A02F4804278
:100E90000292029A29F00302724452F80A3008F0D2
:100EA0000C040F26A640019FB343009E072F38BFB6
:100EB0003E4606FA04F4234342F80A30DEF80020E6
:100EC0004B6842EA0C04DE0358BF22EA0C04CEF859
:100ED0000040DEF804209E0342EA0C0458BF22EAD8
:100EE0000C04CEF80440DEF80820DE0242EA0C04CE
:100EF00058BF22EA0C04CEF8084043F60C44C4F272
:100F0000010422689B0242EA0C0358BF22EA0C0348
:100F1000236055E703B0BDE8F08F0000006908408A
:100F200018BF01207047000042690A408A4208BF8A
:100F30000904816170470000002A08BF090481612B
:100F40007047000040F2C450C2F2000000687047D1
:100F500040F20C0040F2C451C2F20000C2F20001A3
:100F600000780A68104408607047000080B543F6B6
:100F70000040C4F20200016841F4007101600168A0
:100F800041F480610160016841F4807101600320D7
:100F900000F060F8002000F005F800F02BF80020C9
:100FA00080BD0000B0B540F20C02C2F2000240F277
:100FB00000011278C2F200014FF47A730968B3FBA2
:100FC000F2F20446B1FBF2F1084600F0EFFA0F2C02
:100FD0004FF001050CD858B94FF0FF3021460022E0
:100FE000002500F027F840F21000C2F20000046073
:100FF0002846B0BD82B0002043F640010190C4F203
:1010000002014A6842F480424A604A6802F480421F
:101010000192019A0090086840F0805008600868CA
:1010200000F080500090009802B0704780B502F048
:1010300015F880BD70B514460D46064602F01EF840
:101040002946224601F07AFA0146304602F026F897
:1010500070BD000080B502F033F880BD2DE9F0418D
:10106000002800F08B8043F60808C4F2020804460A
:10107000D8F8F8030D4600F00F00884207D288F830
:10108000F853D8F8F80300F00F00A84276D1206892
:10109000810717D5410705D5D8F8001041F4E05174
:1010A000C8F80010010705D5D8F8001041F46041D8
:1010B000C8F80010D8F80010A26821F0F001114320
:1010C000C8F80010C0073FD1D8F8F80300F00F00AF
:1010D000A84207D988F8F853D8F8F80300F00F00B1
:1010E000A8424BD12068410707D5D8F80010E26824
:1010F00021F4E0511143C8F80010000708D5D8F8D2
:101100000000216920F4604040EAC100C8F80000F6
:1011100000F07EF8D8F8001043F20A72C1F3031110
:10112000C0F60102515C40F2000220FA01F140F2E7
:101130001000C2F200000068C2F200021160FFF766
:1011400031FF0020BDE8F0816068811E022907D2CE
:1011500058F8081C89015CBF0120BDE8F08110E04F
:10116000012807D158F8081C89035CBF0120BDE89D
:10117000F08106E058F8081C890702D40120BDE878
:10118000F081D8F8001021F003010843C8F80000EE
:10119000FFF7D8FE064641F2883700BFD8F80000B6
:1011A000616800F00C00B0EB810F8DD0FFF7CAFE34
:1011B000801BB842F2D90320BDE8F08140F2000064
:1011C000C2F200000068704780B5FFF7F7FF43F6F2
:1011D0000801C4F20201096843F21A72C1F38221C4
:1011E000C0F60102515CC84080BD000080B5FFF729
:1011F000E5FF43F60801C4F20201096843F21A72DE
:10120000C1F34231C0F60102515CC84080BD00000C
:1012100010B543F60404C4F20204606800F00C0048
:1012200008280AD0042819BF42F20040C0F2F40096
:1012300047F64000C0F27D1010BD20682168236889
:10124000490247F64001C0F27D1100F03F02C3F3AE
:1012500088105CBF42F20041C0F2F401A1FB000122
:101260000023FEF7ADFF21680222C1F3014102EB2A
:101270004101B0FBF1F010BD2DE9F04182B0002832
:1012800000F098800446007843F60006C007C4F2D8
:10129000020643D0B06800F00C00042805D1306885
:1012A00080033BD56068C8BB84E0B06800F00C00E8
:1012B000082802D170684002F1D46568B5F5A02F06
:1012C0000AD0B5F5803F0BD0306820F48030306014
:1012D000306820F4802006E0306840F480203060E0
:1012E000306840F480303060FFF72CFE002D05465A
:1012F00011D000BF3068800310D4FFF723FE401BDD
:101300006428F7D918E100BFFFF71CFE401B6428D2
:101310004FF003004BD830688003F5D42078800765
:1013200019D5B06810F00C0F08D0B06800F00C00B0
:10133000082840F08080706840027CD430688007C4
:1013400002D5E068012835D13068216920F0F80025
:1013500040EAC1003060207800072FD42078400791
:1013600043D4A56915B3B06800F00C00082840F01C
:101370009580012D1ED07068E16900F480028A42D8
:1013800018D1216A00F03F028A4213D147F6C0719A
:10139000626A014091420DD1A16A00F440328A4252
:1013A00008D1E16A00F07060884203D1002002B0E9
:1013B000BDE8F081012002B0BDE8F081606900283D
:1013C00040F20000C4F2472057D00121C0F8801E2F
:1013D000FFF7B8FD054600BF706F8007BED4FFF76A
:1013E000B1FD401B0228F7D9A6E0306C10F0805800
:1013F0000AD100200190306C40F080503064306C95
:1014000000F080500190019847F20007C4F20007F5
:101410003868C00524D4386840F480703860FFF71D
:1014200091FD05463868C0051AD4FFF78BFD401BB7
:101430000228F7D980E0E068002851D00020C4F2EB
:10144000472001210160FFF77DFD054630688007D8
:101450003FF57AAFFFF776FD401B0228F6D96BE027
:10146000A568052D50D0012D52D0306F20F001001D
:101470003067306F20F004004DE00021C0F8801E7E
:10148000FFF760FD054600BF706F80077FF566AF10
:10149000FFF758FD401B0228F6D94DE00027C4F2A3
:1014A000472700203866FFF74DFD022D05460BD17A
:1014B0003068800158D5FFF745FD401B02284FF0EA
:1014C0000300F5D973E700BF306880017FF56EAF88
:1014D000FFF738FD401B02284FF00300F4D966E700
:1014E0000020C4F2472000210160FFF72BFD0546D4
:1014F000306880077FF52FAFFFF724FD401B0228DF
:101500004FF00300F4D952E7306F40F00400306729
:10151000306F40F001003067FFF714FD002D0546E5
:1015200041F2883714D000BF306F800713D4FFF723
:1015300009FD401BB842F7D9032002B0BDE8F08195
:10154000FFF700FD401BB8424FF003003FF62FAFFE
:10155000306F8007F4D4B8F1000F7FF402AF306C25
:1015600020F080503064FCE604F11C052FCD0843C8
:101570000021CFF6FF7140EA821001EBC3316FF317
:101580000F0140EA05600843706001203866FFF7EC
:10159000D9FC0446306880013FF508AFFFF7D2FC64
:1015A000001B02284FF00300F4D900E780B500F0DB
:1015B000F3FF80BD7047000070470000B0B590F8A1
:1015C0003C20012A04BF0220B0BD01F108053CCD3A
:1015D000D1E900CE23F47C5322F470521A432EF446
:1015E000F0431A432CF4E0431A4324F4C0431A4353
:1015F0002A43C96922F480420368114359640021D7
:1016000080F83C100846B0BD10B590F83C20012A87
:101610004FF0020252D0012380F83C3080F83D2088
:101620000268D2F804E0D2F808C00C682EF070030B
:10163000234341F2FF74C4F20004A24253600DDC64
:1016400040F2FF73C4F200039A4215DCB2F1804FFE
:1016500029D040F20043C4F2000322E040F2FF33FD
:10166000C4F201039A4212DC41F60003C4F2000303
:101670009A4218D0002312E040F60003C4F200039F
:101680009A4210D040F60043C4F2000309E044F24D
:101690000003C4F201039A4205D040F20043C4F2B1
:1016A00001039A4204D149682CF0800319439160E8
:1016B0000121002280F83D1080F83C20104610BD2A
:1016C000002804BF0120704710B5044690F83D0083
:1016D00028B9002084F83C00204600F00DF80220D4
:1016E00084F83D002068211D01F0FEF8012084F8F7
:1016F0003D00002010BD000010B582B0006840F62B
:10170000FF71C4F2000188421ADC40F20041C4F2C9
:101710000001884248D040F60041C4F200018842EE
:1017200069D10020019043F64000C4F20200016834
:10173000322441F008010160006800F0080050E028
:1017400041F20001C4F2000188423CD00021C4F201
:10175000010188424FD10020019043F64000C4F2BD
:1017600002004168002241F001014160406802210D
:1017700000F00100019001981820FFF75BFC182091
:10178000FFF754FC192002210022FFF753FC192017
:10179000FFF74CFC1A2002210022FFF74BFC1A2015
:1017A000FFF744FC1B241EE00020019043F640009C
:1017B000C4F2020001681D2441F0020101600068CA
:1017C00000F002000DE00020019043F64000C4F25A
:1017D00002000168362441F010010160006800F049
:1017E000100001900198204602210022FFF722FC00
:1017F0002046FFF71BFC02B010BD00000068C16866
:1018000041F00101C160816801F00701062903D0A0
:10181000016841F0010101600020704710B50446E5
:1018200090F83C0001284FF0020008BF10BD0122D3
:1018300084F83C2084F83D0020684FF67773826876
:101840009A4382600A683F2A14DD5F2A18DD602A05
:1018500028D0B2F5005F2DD0702A40D1D1E9012CFB
:10186000CB68614601F0E4F82068816841F07701B7
:10187000816034E01F2A0FDC92B1102A10D02EE0D4
:10188000402A23D0502A2AD14B68CA68194601F051
:10189000CBF92068502120E0202A01D0302A1ED127
:1018A00011461AE04B68CA68194601F0CFF9206862
:1018B000602112E0D1E9012CCB68614601F0B8F853
:1018C0002068816841F48041816008E04B68CA6803
:1018D000194601F0A9F92068402101F0B5F801206E
:1018E00084F83D00002084F83C0010BD002804BFAF
:1018F000012070472DE9F047044690F83D000D4661
:1019000028B9002084F83C00204600F03FF802206F
:1019100084F83D00206844F20702816891438160A9
:10192000211D00F0E1FF20684FF6FF788168826991
:10193000D0F820C0D5E9003ED5E9026A43EA0109A2
:10194000AB6922EA080246EA03234FF6FC46B3439A
:10195000D5E9076742EA0A0229691A4342EA0622E0
:1019600042EA01112CF0AA026B6942EA0E0241EA36
:10197000073142EA0312C0F8089081610262012037
:1019800084F83D000020BDE8F087000080B586B0F7
:1019900000680021B0F1804F0591CDE9031102915B
:1019A000019101D006B080BD43F630000091C4F231
:1019B0000200026942F001020261026902F00102C2
:1019C0000092009A0091026842F0010202600068F1
:1019D00000F0010000900098032001900220CDE962
:1019E00002010120059000200491C4F2020001A927
:1019F000FFF7C6F91C2002210022FFF71BFB1C2069
:101A0000FFF714FB06B080BDB0B50429044609D029
:101A100089B920680021012200F0F8FF2068022522
:101A20000C3019E0206804210122042500F0EEFFAB
:101A300020680C3010E020680021012200F0E6FF51
:101A4000206804210122042500F0E0FF206850F8FE
:101A50000C1F41F002010160016829430160216807
:101A6000086840F0010200200A60B0BD90F83C20F8
:101A7000012A4FF0020209D080F83D20026851612E
:101A80000121002280F83D1080F83C20104670476C
:101A90007047000010B5044600680169890744BF1B
:101AA000C1685FEA817138D420680169490744BF81
:101AB000C1685FEA41713CD420680169090744BFED
:101AC000C1685FEA017141D420680169C90644BF59
:101AD000C1685FEAC16145D420680169C9071CBFBC
:101AE000C1685FEAC1714AD120680169090644BF33
:101AF000C1685FEA016149D420680169490644BFB1
:101B0000C1685FEA416148D420680169890644BF21
:101B1000C1685FEA816147D410BD6FF002010161C5
:101B2000012121778069800745D02046FFF7B0FF6B
:101B300047E06FF00401016102212177806910F410
:101B4000407F41D02046FFF7A3FF43E06FF008013C
:101B5000016104212177C06980073ED02046FFF74C
:101B600097FF40E06FF01001016108212177C06903
:101B700010F4407F3AD02046FFF78AFF3CE06FF038
:101B800001010161204600F043F9ADE76FF08001EB
:101B900001612046FFF70EFDAEE76FF040010161E5
:101BA000204600F039F9AFE76FF0200101612046CF
:101BB000FFF702FD10BD204600F07CF8204600F043
:101BC00007F9002020776FE7204600F073F82046E1
:101BD00000F0FEF8002020776EE7204600F06AF85B
:101BE000204600F0F5F8002020776DE7204600F051
:101BF00061F8204600F0ECF8002020776CE7000048
:101C000080B586B000210068C4F20101002288423C
:101C10000592CDE903220292019201D006B080BD67
:101C200043F630000092C4F20200036843F0100350
:101C30000360006800F01000009000984FF48040AE
:101C400001900220CDE902020120059001F58830C3
:101C500001A90492FFF794F806B080BDB0B5044620
:101C600090F83C0001284FF0020008BFB0BD4FEAD9
:101C7000B2020125032A84F83C5084F83D0012D8B2
:101C8000DFE802F002060A0E206800F0E5FE0AE036
:101C9000206800F013FF06E0206800F045FF02E036
:101CA000206800F075FF002084F83D5084F83C0067
:101CB000B0BD000070470000002804BF012070473D
:101CC00010B5044690F83D0028B9002084F83C0087
:101CD000204600F00DF8022084F83D002068211D08
:101CE00000F002FE012084F83D00002010BD00003D
:101CF0007047000070B5044690F83C0001284FF092
:101D0000020008BF70BD0D464FEAB201012603294B
:101D100084F83C6084F83D0036D8DFE801F0020A20
:101D200012222068294600F097FE206850F8181FFC
:101D30000EE02068294600F0C1FE206850F8181F08
:101D400016E02068294600F0EFFE206850F81C1FBE
:101D500041F008010160016821F004010160296976
:101D60000FE02068294600F013FF206850F81C1F80
:101D700041F400610160016821F48061016029691A
:101D80000902026811430160002084F83D6084F874
:101D90003C0070BD002804BF0120704710B5044608
:101DA00090F83D0028B9002084F83C00204600F05F
:101DB0000DF8022084F83D002068211D00F094FDFC
:101DC000012084F83D00002010BD00007047000095
:101DD0007047000010B504460068012200F016FEAE
:101DE000206840F2004240F48061C4F20102914256
:101DF00003D1416C41F400414164816801F0070165
:101E0000062903D0016841F001010160002010BDE6
:101E100080B500F0E5FE80BD70470000704700000F
:101E200010B5026804461068D168536900F02F02AB
:101E3000202A01F0200204D11AB1204600F078FFD8
:101E400010BD5FEA007C1EBF03F0010E01F4907329
:101E500013EB0E030DD10840010606D4400658BF0F
:101E600010BD204600F058FF10BD204601F056F886
:101E700010BDC30718BF11F4807302D1430706D405
:101E80000CE0E36B43F00103E363430706D5BEF1C7
:101E9000000F03D0E36B43F00203E363830706D52F
:101EA000BEF1000F03D0E36B43F00403E363BCF126
:101EB000000F06D552EA0E0203D0E26B42F0080290
:101EC000E263E26B002ACFD00840800602D52046AC
:101ED00000F02EFF20684069E16B00F0400001F047
:101EE000080140181DD0204600F008FF2068416915
:101EF000490612D5416921F040014161606B60B132
:101F000042F6ED41C0F601010165FEF727FF00280A
:101F1000AAD0606B016D884710BD2046FFF77EFF99
:101F200010BD2046FFF77AFF0020E06310BD0000DF
:101F3000002804BF0120704710B5044690F839000E
:101F400028B9002084F83800204600F021F8242029
:101F500084F839002068C16821F40051C16020462E
:101F600000F026FF2068016921F490410161416978
:101F700021F02A014161C16841F40051C160002093
:101F80002021E06384F8391084F83A1010BD000075
:101F90002DE9F04387B0006844F20042C4F2000229
:101FA00000219042CDE90511CDE9031102914DD0F8
:101FB00041F20001C4F20101884277D1002643F6C4
:101FC00030000196C4F202004169002441F0100182
:101FD00041614169C4F2020401F0100101910199CB
:101FE0000196016802AD41F00101016001684FF006
:101FF000020801F0010101910199019601684FF079
:10200000030941F0020101600068072700F00200A7
:10201000019001984FF40070029020462946CDE9C6
:102020000386CDF814900697FEF7AAFE8020CDE92E
:10203000020804F580602946CDE904690697FEF799
:102040009FFE25200121002225242AE043F63000AE
:102050000191C4F20200026942F400320261026995
:1020600002F400320192019A0191026842F00102E9
:102070000260006800F00100019001980C200290BD
:102080000220CDE9030103200590072006900020DF
:10209000C4F2020002A9FEF773FE262000210022EE
:1020A0002624FEF7C7FF2046FEF7C0FF07B0BDE8B5
:1020B000F083000070470000034690F839002028A4
:1020C0000AD100294FF0010018BF002A00D1704743
:1020D00093F83800012801D10220704719620020CE
:1020E00021219A84DA84D86383F83910196883F837
:1020F0003800CA6842F08002CA60704780B540F27A
:102100001C02C2F20002D2F800C040F228010023F3
:10211000C2F20001D1F800E0864508D0002B03F19F
:10212000010302F1040201F10401F3D001E0D2F84D
:1021300000C0864518BF80BD01208CF82000BCF887
:102140000200DCF81410DCF80C200144CCF8141068
:10215000914224BFDCF80810CCF814109CF8211030
:1021600019B102208CF8210080BDBCF80010081ABB
:10217000ACF8000080BD0000FEE7000080B540F232
:10218000DC3046F20041C2F20000C4F20001152228
:10219000002380E80E0000F10C014FF4702C4FF486
:1021A000001E81E8085083618383FEF77FFC80BDB9
:1021B0002DE9F04387B0002743F630000697CDE9BC
:1021C0000477CDE902770197C4F20200016841F279
:1021D000000441F0100101600168C4F2020401F042
:1021E00010010191019901970168A4F5805541F012
:1021F000800101600168002201F0800101910199D4
:102200000197016841F001010160016801F00101DD
:10221000019101990197016841F002010160006894
:10222000402100F00200019001982846FEF784FE4C
:102230002846802101224FF00108FEF77DFE20464E
:102240004FF4005100224FF40059FEF775FE0820AC
:1022500002AECDE90207204631460497FEF790FD15
:10226000102002A981E8810120463146FEF788FD51
:10227000C020CDE9020828463146CDE90477FEF7B3
:102280007FFD20463146CDE90298CDE90477FEF77F
:1022900077FD07B0BDE8F083B0B596B040F20444D6
:1022A0000020C2F20004C4F201000025532140F2D4
:1022B000E73284E8230020461595CDE91355CDE992
:1022C0001155CDE90F55CDE90D55CDE90B55CDE9AA
:1022D0000955CDE90755CDE90555CDE90355CDE9BA
:1022E0000155C4E90325C4E90555FFF7E9F94FF4A1
:1022F0008050129012A92046FFF790FA2046FFF76F
:1023000049FD10A92046CDE91055FFF77DF9602061
:10231000CDE9090509A920460C220B95CDE90D55FB
:102320000F95FFF7E7FC4FF40050069001A92046F7
:10233000CDE90155CDE9035505950895FFF73EF91F
:102340002046FFF75DFC16B0B0BD000070B58CB044
:1023500003AC20462421FDF77DFF40F24445C2F244
:1023600000054FF080400026032185E8430001204E
:102370004FF6FF72CDE90316CDE90506CDE9090652
:1023800028462146CDE90066C5E90326AE61CDE9C0
:1023900007660B96FFF7AAFA69462846CDE900665C
:1023A000FFF732F90CB070BDB0B58EB040F2844486
:1023B00040F200400025C2F20004C4F20000C4E96B
:1023C000000520460D95CDE90B55CDE90955CDE920
:1023D0000755CDE90555CDE90355CDE90155A56171
:1023E000C4E902552561FFF76BF94FF480500A905C
:1023F0000AA92046FFF712FA2046FFF75DFC08A95C
:102400002046CDE90855FFF7FFF801A92046002234
:10241000CDE9015503950595FFF720FC0EB0B0BD41
:10242000B0B58EB040F2C44440F600400025C2F280
:102430000004C4F20000C4E9000520460D95CDE972
:102440000B55CDE90955CDE90755CDE90555CDE940
:102450000355CDE90155A561C4E902552561FFF792
:102460002FF94FF480500A900AA92046FFF7D6F9B9
:102470002046FFF721FC08A92046CDE90855FFF7C3
:10248000C3F801A920460022CDE901550395059521
:10249000FFF7E4FB0EB0B0BDB0B582B040F204541B
:1024A00041F200000025C2F20004C4F20000C4E9B9
:1024B00000052046CDE90055C4E90255A561FFF7A6
:1024C000FFF869462046CDE90055FFF79DF802B0B8
:1024D000B0BD000080B540F2445041F20001C2F2AC
:1024E0000000C4F2010100234FF00C0C4FF4E13264
:1024F00080E80E00C0E90333C0E905C3C361FFF7FC
:1025000017FD80BD80B540F2845044F20041C2F214
:102510000000C4F2000100234FF00C0C4FF4E13234
:1025200080E80E00C0E90333C0E905C3C361FFF7CB
:10253000FFFC80BDFEE700007047000000F00700D0
:1025400080F00703042B28BF04234FF0FF3C03381F
:102550000CFA03F338BF0020994381400CFA00F0D5
:1025600022EA0000084370477047000070470000EF
:10257000B0B501380024B4EB106F1CBF0120B0BD12
:102580004EF21005CEF20005686000F07FFD0720D6
:10259000AC6028602046B0BDB0B501380024B4EB73
:1025A000106F1CBF0120B0BD4EF21005CEF2000529
:1025B00068604FF0FF300F2100F070FD0720AC6025
:1025C00028602046B0BD000080B540F20800C2F28D
:1025D0000000016811B1016801390160FEF7B8FC23
:1025E00080BD000070B592B006AC20463021FDF7EA
:1025F00031FE002543F640000595CDE90355CDE9B0
:1026000001550095C4F202000168022641F0805194
:102610000160006800F080500090009847F20000D0
:102620000095C4F20000016841F480410160006837
:1026300000F48040009000980120099010200A903A
:1026400008200E90A820CDE90F0604201190204606
:102650000696CDE90C65FEF70FFE0F20CDE90106C9
:102660004FF4A05004904FF48050059001A805212C
:102670000395FEF7F3FC12B070BD00004EF68850D3
:10268000CEF20000016841F4700101604FF000617A
:1026900040F8801C7047000080B540F20440C2F250
:1026A0000000FFF7F7F980BD80B540F20440C2F2A8
:1026B0000000FFF7EFF980BD80B540F20440C2F2A0
:1026C0000000FFF7E7F980BD80B540F20440C2F298
:1026D0000000FFF7DFF980BD80B540F24440C2F250
:1026E0000000FFF7D7F980BD80B540F28440C2F208
:1026F0000000FFF7CFF980BD70B582B040F24446CC
:10270000C2F20006306840F2C855416AC2F20005C4
:1027100085F8271000688DF80510C0F30010A86038
:102720004FF60340ADF803004FF47F70ADF806009C
:102730000DF1030000F0D4FC40F2B824C2F2000412
:10274000014668612046052200F092FA208838B1DF
:102750000020688440F2B820C2F2000000F01CFCA7
:1027600094F82000002100281CBF6088688430682D
:102770004162416AE9600068C0F30010286102B05C
:1027800070BD000080B540F2C440C2F20000FFF707
:1027900081F980BD80B540F20450C2F20000FFF71D
:1027A00079F980BD2DE9F0478AB040F2C859C2F2EC
:1027B000000943F2247199F82700C0F60101096865
:1027C00089F826004A6840F200648A60C2F2000478
:1027D000217D002700294FF000064FF0300163688B
:1027E00008BFD61A0997CDE90777CDE90577CDE976
:1027F0000377CDE90077049108218DF8000099F85E
:1028000028000891B9F829108DF8010040F2DC3059
:102810006260ADF80210C2F2000004A96A4603AB80
:1028200027758DF82470FDF7B7FE002818BFFDF757
:102830009DFE607C08B1206803E02068A16801FB70
:10284000060094F810A0C9F81C00E07B0AEB8A038C
:10285000E27C5B00A17B89F8293000EB80035B0000
:1028600089F8281089F82A3012B194F80D8003E015
:10287000627BA37C03FB062899F826208E1A217B15
:10288000F5B2711AC9B201FB00F70020C4F20200D0
:102890004021FEF749FB40F26402C2F20002D9F87F
:1028A0001C1015FB0A73576A00201B04B9426074A0
:1028B0002160A3600FD040F20443C2F200031B6802
:1028C0005162DA6A514348F21F52C5F2EB12A1FB82
:1028D0000212510919642673E07484F80D80A674FD
:1028E0000AB0BDE8F087000010B540F6FF3E03686F
:1028F000C4F2000E40F2004C7045C4F2010C0FDC33
:10290000B0F1804F19D040F20042C4F20002904270
:1029100013D040F60002C4F2000290420DD010E045
:1029200040F60042C4F20002904206D0604504D056
:102930000022C4F20102904203D14A6823F07003DE
:10294000134341F6FF72C4F2000290420DDC704561
:102950001FDCB0F1804F41D040F20042C4F20002CF
:1029600090423BD040F6000221E043F6FF72C4F2F1
:102970000102904220DC42F20002C4F200029042C6
:102980002CD00022C4F20102904227D0604525D00D
:1029900028E040F60042C4F2000290421ED041F608
:1029A0000002C4F20002904218D041F60042C4F284
:1029B0000002904212D015E044F20002C4F201027B
:1029C00090420BD044F60002C4F20102904205D0BE
:1029D00044F20042C4F20102904203D1CA6823F4D7
:1029E0004073134323F080024B69D1F800E08C68F8
:1029F0001A430260C46240F48062C0F828E0624575
:102A000004BF096901630121416110BD80B501F076
:102A10001F014FF0010CD0F820E00CFA01F32EEA70
:102A200003030362036A02FA01F11943016280BDE4
:102A3000D0F808C011432CF47F4C41EA032141EA4D
:102A40000C01816070470000826822F0700211431F
:102A500041F0070181607047B0B5026A40F200455D
:102A600022F001020262026AD0F804E0D0F818C035
:102A70008C6822F0020240F48063C4F20105AB428C
:102A800042EA040205D1CC6822F00C0224F00404CE
:102A900022430C68AB4207D1D1E905532EF4407EA6
:102AA00045EA0E0545EA030E2CF073032343C0F8F4
:102AB00004E08361496841630262B0BD70B5026A97
:102AC00040F2004422F010020262026AD0F804E0F0
:102AD000D0F818C08D6822F0200240F48063C4F260
:102AE0000104A34242EA051207D1CD686FF0400607
:102AF00022F0C00206EA05152A430D68A34207D159
:102B0000D1E905642EF4406343EA860343EA840E68
:102B10002CF4E64343EA0523C0F804E083614968E6
:102B20008163026270BD000070B5026A40F2004429
:102B300022F480720262026AD0F804E0D0F81CC06D
:102B40008D6822F4007240F48063C4F20104A34251
:102B500042EA052207D1CD6840F2FF462D0222F459
:102B60004062B5432A430D68A34207D1D1E9056409
:102B70002EF4405343EA061343EA041E2CF0730379
:102B80002B43C0F804E0C3614968C163026270BDB1
:102B900070B5026A40F2004622F480520262026A74
:102BA0004368D0F81CE00C68D1F808C040F4806598
:102BB000C4F20106B54204D14D6923F4804343EACF
:102BC00085132EF4E64646EA04264360C66122F4E5
:102BD0000052496842EA0C320164026270BD000092
:102BE00080B540F23002C2F20002D2F800C040F2DA
:102BF00048010023C2F20001D1F800E0864508D068
:102C0000032B03F1010302F1040201F10401F3D9E2
:102C100001E0D2F800C0864518BF80BDDCF8800016
:102C2000002818BF804780BDD0F820C0036A23F079
:102C300001030362836923F0F00343EA02122CF0DC
:102C40000A0319438261016270470000036A23F09E
:102C5000100303628369D0F820C023F4704343EA71
:102C600002322CF0A00343EA011182610162704735
:102C700010B54FF0000C2AB91EE000BF1FFA8CF30C
:102C8000934218D2D0E904E39E4501D103889BB951
:102C900011F8013B0EF1010404618EF80030D0E917
:102CA00004340CF1010CA34206D0C468A342E5D160
:102CB00083680361E2E79446012180F821100188CE
:102CC0006144018090F82130022B02D14388C91A57
:102CD00001801FFA8CF30021934280F8211028BF55
:102CE00010BD81880131818010BD000080B5806BEE
:102CF0000021C185C184FFF791F880BD0168CA68D1
:102D000022F49072CA604A6922F001024A612021CD
:102D100080F83A107047000080B50168CA6822F058
:102D20004002CA60202180F83910FFF7E7F980BD22
:102D300080B590F83A10222938D18168B1F5805FCA
:102D40000AD102680369816A52688BB1836AD2B280
:102D50000A80591C816211E0016802694968002AF1
:102D6000826A18BF01F07F01531C8362117005E075
:102D7000836A6FF35F220A80991C8162C18D0139D9
:102D80000A04C18518BF80BD0168CA6822F020020C
:102D9000CA60CA6822F48072CA604A6922F00102DD
:102DA0004A61202180F83A10FFF784F980BD0000C5
:102DB000B0B50546006805F108030ECB0469194358
:102DC00024F44054224302616A69EB691143C268EA
:102DD00049F20C641943A2431143C1604169AA69D5
:102DE00021F440711143416141F20041B3F5004FBC
:102DF00040F48060C4F2010124D1884246D1FEF73C
:102E0000F5F96B681921A0FB01015A00DB0FFDF7F2
:102E1000D7F948F21F51C5F2EB11A0FB01235A0963
:102E20006FF0630302FB0300322303EBC000A0FB3F
:102E300001014FF4F87000EA111000EB0210C1F329
:102E4000421167E0884244D1FEF7D0F96B6819213E
:102E5000A0FB01019A009B0FFDF7B2F948F21F5148
:102E6000C5F2EB11A0FB01235A096FF0630302FBCB
:102E70000300322303EB0010A0FB0101F02000EA65
:102E8000511000EB0210C1F3431143E0FEF79CF92F
:102E90006B681921A0FB01015A00DB0FFDF790F9C7
:102EA00048F21F51C5F2EB11A0FB01235A096FF044
:102EB000630302FB0300322303EBC000A0FB01010C
:102EC0004FF4F87000EA111000EB0210C1F3421148
:102ED00020E0FEF779F96B681921A0FB01019A0047
:102EE0009B0FFDF76DF948F21F51C5F2EB11A0FBE6
:102EF00001235A096FF0630302FB0300322303EB43
:102F00000010A0FB0101F02000EA511000EB0210BC
:102F1000C1F343112A6808439060B0BD90F839109E
:102F2000212927D18168B1F5805F0ED1016AD0F8DF
:102F300000C00B8802696FF35F23002ACCF80430CD
:102F400014BF01310231016205E0016A02684B1CC5
:102F5000036209785160C18C01390A04C18418BF29
:102F600070470068C16821F08001C160C16841F00C
:102F70004001C1607047000080B540F24450C2F289
:102F80000000FEF74DFF80BD80B540F28450C2F2D4
:102F90000000FEF745FF80BD80B590F82010A9B174
:102FA0000288002A08BF80BD002180F82010C36875
:102FB00041695B1A1FFA83FC944508D2438040F2B2
:102FC0008450C2F200006246FFF776F880BD42806E
:102FD00040F28450C2F20000FFF76EF880BD00009E
:102FE00010B540F2DC2340F2B820C2F20003C2F276
:102FF000000003F5807242F6714E42F6997400218A
:103000004FF0807CC0F6010EC0F60104C0E9023228
:103010000222C0E9001CC0E90433C0E906E480F8DC
:10302000202080F8211040F22401C2F200010A8819
:1030300040F21C03C2F2000343F8220040F22800D1
:1030400040F28453C2F20000C2F2000340F8223082
:10305000501C088010BD0000FEE70000002848BF9B
:10306000704700F01F01012202FA01F14EF2001236
:103070004009CEF2000242F8201070474EF60C5084
:10308000CEF200000068C0F3022070474EF62350D5
:10309000CEF20000F0210170704700004EF614538C
:1030A00000F00F02CEF2000309011A4400F1604360
:1030B000B0F1FF3FC8BF03F56442117070470000D4
:1030C0004EF60C51CEF200010A684FF6FF031A408B
:1030D00060F30A2242F0806040F0FD7008607047A3
:1030E00070470000000000004EF608500021CEF2AC
:1030F0000000C0F601010160FDF738FFFFF772FA2A
:10310000FFF756F8FFF73AF8FFF7C6F8FFF71EF992
:10311000FFF7E0F9FFF748F9FFF782F9FFF7BCF98D
:10312000FFF7F0F940F20007C2F200073868FDF738
:1031300041F99FED2F0B54EC105B2A462346FDF717
:1031400094F8FDF744F9FFF713FA40F20408C2F2CD
:103150000008F8B10120C8F800003868FDF72AF926
:103160002A462346FDF781F8FDF731F9002100BF1B
:10317000D8F800200132C8F80020D8F80020B0FBB1
:10318000F2F2B1EB126FF3D1D8F80010B0FBF1F00E
:10319000FFF7EEF9D8F8000040F2080440F25C05B1
:1031A000C2F20004C2F200054FF0000A206085F868
:1031B00000A000F0D5F843F22470C0F601000668C4
:1031C0000FF23409012700BF20680028FCD1D8F88D
:1031D000000020602878012808BFC6F800902F70F2
:1031E00000F048FA85F800A0EEE700BF00BF00BF7E
:1031F0000000000000408F404F76657272756E00CF
:103200002DE9F04F83B09FED2A1B57EC106B59EC62
:10321000114B0D4602903046394622464B46FDF78B
:1032200093F80028019595F800B018BF01204FEAE7
:10323000400A3046394622464B460BF00308FDF75C
:103240009EF8002818BF4FF0010A1BA0029900EB5E
:10325000880010F80A00013102299ABF1AA252F818
:1032600021100021019F01420FD04FEA9B029107DC
:103270004FF0000102D510F0040307D1830658BFB8
:103280000146D20658BF014600E000214AEA81000B
:1032900011F0380F387004D04FF0FF3003B0BDE8A4
:1032A000F08F11F0070018BF012003B0BDE8F08FC8
:1032B00000000000000000000004200010000800D2
:1032C0000201000000000000380000003F00000084
:1032D0000700000080B500F001F880BDB0B58AB0ED
:1032E00040F2DC300025C2F2000003AA6B46002148
:1032F0000995CDE90755CDE90555CDE90355CDE94A
:103300000055FDF727FA40F2C854C2F2000410B18C
:1033100084F82B5014E0012084F82B00DDE90550DF
:10332000079A84F82D0004F12E00694684F82C5089
:10333000A284FCF776FF002D14BF04980398A061C7
:1033400094F82B00012808D1E08D40F2006194F838
:103350003120C2F20001C8810A740AB0B0BD000079
:103360002DE9F04F8BB040F24407C2F200073988D4
:1033700040F2300240F26400C2F20002C2F20000E9
:1033800042F82100914640F2480240F20444C2F261
:103390000002C2F2000442F8214092460A220525AA
:1033A000C0E9082540F60912013147F6002E002633
:1033B000C0F201123980A721C0F6032EC0E905260C
:1033C000226840F2E73344F24028C0E9001E00F1D1
:1033D000080EC661C0E92066C0E92266C0F89060A8
:1033E0003220C0F20F084FF47A7C8EE80811916207
:1033F000D362E360106420460121FEF737FB388872
:1034000040F2F80140F2444540F20773C2F2000175
:10341000C2F2000542F2107BC0F6091349F82010F1
:103420004AF82050D04601304BF6005A46F6407C10
:10343000C1E904B32B6838800320C0F2015A40F67A
:103440003302C0F2401CC1E90866C1E9000AC1E9C3
:10345000022CC1E90666C1E92066C1E92266C1F80D
:103460009060986228460121DA62EA60FEF7FEFA6F
:10347000398840F22022C2F2000249F821204FF0A0
:103480000939322340F20450C2E9043942F2A573EB
:10349000C2F20000C0F6010348F821000131C2E980
:1034A0002066C2E92266C2F89060C2F880300368E4
:1034B000398042F2CF08C721C2E90866C2E9008A12
:1034C000C2E9021B9661D661C3F82880D962C16047
:1034D0000121FEF7CBFA398840F28C1240F230001D
:1034E000C2F20002C2F2000040F8212040F2844003
:1034F00040F24803C2F20000C2F2000343F8210088
:10350000013164233980C2E9043942F2F963076862
:103510006321C0F60103C2E90866C2E9008AC2E974
:10352000021BC2E90666C2E92066C2E92266C2F849
:103530009060C2F88030C7F82880F962C16001212C
:10354000FEF794FA94F83D000228FBD040F20440C4
:10355000C2F200000C21FEF73DFC28463C21FEF79C
:1035600053FA00BF95F83D000228FBD095F83D00C6
:103570000228FBD0FFF734FD40F20454C2F20004ED
:103580002046FEF73BF92046FEF738F940F2844426
:10359000C2F200042046FEF731F92046FEF72EF96C
:1035A00001AC20462821FCF755FE012009900E2091
:1035B0000A9040F2DC30C2F200002146FDF73EF8EE
:1035C000002818BFFCF7D2FF40F2DC30C2F2000046
:1035D0000E21FCF7CDFF002818BFFCF7C7FF40F213
:1035E0000060C2F200004FF48571C18101210174B5
:1035F00040F22460C2F200000321017040F260003A
:1036000040F24151C2F20000C0F60101016040F2F7
:10361000B42040F25D51C2F20000C0F60101016029
:1036200040F2DC30C2F200004FF40B41FCF7A0FF87
:10363000002818BFFCF79AFF40F21860C2F20000A1
:103640004168816040F2DC30C2F200000121FCF7E9
:103650008FFF002818BFFCF789FF40F2DC30C2F270
:103660000000FDF721FB002818BFFCF77FFF0BB01F
:10367000BDE8F08FB0B540F2DC3041F20004C2F298
:1036800000000021C4F20204FDF754F840F2C855CE
:10369000C2F20005288420460821FDF73FFC85F88A
:1036A000360020461021FDF739FCFCF783FE41EC83
:1036B000100B40F22461C2F200014FF0FF3085EDA3
:1036C000000BFFF79DFD48B120464FF40051FDF778
:1036D0002BFCA4F580508021FDF726FC40F21860F9
:1036E000C2F20000416801314160B0BD02E008C88B
:1036F000121F08C1002AFAD170477047002001E06C
:1037000001C1121F002AFBD1704700000000000019
:10371000000001020304060708090000000001027E
:1037200003040000180600204837010800000020AC
:1037300018000000EC36010860370108180000206E
:10374000100A0000FC3601080024F400010000000B
:103750000100000001000000100000000000000057
:040000050801018964
:00000001FF
